{"abi":[{"type":"constructor","inputs":[{"name":"_admin","type":"address","internalType":"address"}],"stateMutability":"nonpayable"},{"type":"function","name":"addOfficer","inputs":[{"name":"_officer","type":"address","internalType":"address"},{"name":"_level","type":"uint8","internalType":"enum GramConnect.OfficerLevel"},{"name":"_state","type":"string","internalType":"string"},{"name":"_district","type":"string","internalType":"string"},{"name":"_mandal","type":"string","internalType":"string"},{"name":"_village","type":"string","internalType":"string"}],"outputs":[],"stateMutability":"nonpayable"},{"type":"function","name":"admin","inputs":[],"outputs":[{"name":"","type":"address","internalType":"address"}],"stateMutability":"view"},{"type":"function","name":"complaintCount","inputs":[],"outputs":[{"name":"","type":"uint256","internalType":"uint256"}],"stateMutability":"view"},{"type":"function","name":"complaints","inputs":[{"name":"","type":"uint256","internalType":"uint256"}],"outputs":[{"name":"id","type":"uint256","internalType":"uint256"},{"name":"description","type":"string","internalType":"string"},{"name":"category","type":"string","internalType":"string"},{"name":"ipfsHash","type":"string","internalType":"string"},{"name":"state","type":"string","internalType":"string"},{"name":"district","type":"string","internalType":"string"},{"name":"mandal","type":"string","internalType":"string"},{"name":"village","type":"string","internalType":"string"},{"name":"citizen","type":"address","internalType":"address"},{"name":"timestamp","type":"uint256","internalType":"uint256"},{"name":"status","type":"uint8","internalType":"enum GramConnect.Status"}],"stateMutability":"view"},{"type":"function","name":"fileComplaint","inputs":[{"name":"_description","type":"string","internalType":"string"},{"name":"_category","type":"string","internalType":"string"},{"name":"_ipfsHash","type":"string","internalType":"string"},{"name":"_state","type":"string","internalType":"string"},{"name":"_district","type":"string","internalType":"string"},{"name":"_mandal","type":"string","internalType":"string"},{"name":"_village","type":"string","internalType":"string"}],"outputs":[],"stateMutability":"nonpayable"},{"type":"function","name":"getComplaint","inputs":[{"name":"_id","type":"uint256","internalType":"uint256"}],"outputs":[{"name":"","type":"tuple","internalType":"struct GramConnect.Complaint","components":[{"name":"id","type":"uint256","internalType":"uint256"},{"name":"description","type":"string","internalType":"string"},{"name":"category","type":"string","internalType":"string"},{"name":"ipfsHash","type":"string","internalType":"string"},{"name":"state","type":"string","internalType":"string"},{"name":"district","type":"string","internalType":"string"},{"name":"mandal","type":"string","internalType":"string"},{"name":"village","type":"string","internalType":"string"},{"name":"citizen","type":"address","internalType":"address"},{"name":"timestamp","type":"uint256","internalType":"uint256"},{"name":"status","type":"uint8","internalType":"enum GramConnect.Status"}]}],"stateMutability":"view"},{"type":"function","name":"getTotalComplaints","inputs":[],"outputs":[{"name":"","type":"uint256","internalType":"uint256"}],"stateMutability":"view"},{"type":"function","name":"officers","inputs":[{"name":"","type":"address","internalType":"address"}],"outputs":[{"name":"isActive","type":"bool","internalType":"bool"},{"name":"level","type":"uint8","internalType":"enum GramConnect.OfficerLevel"},{"name":"state","type":"string","internalType":"string"},{"name":"district","type":"string","internalType":"string"},{"name":"mandal","type":"string","internalType":"string"},{"name":"village","type":"string","internalType":"string"}],"stateMutability":"view"},{"type":"function","name":"removeOfficer","inputs":[{"name":"_officer","type":"address","internalType":"address"}],"outputs":[],"stateMutability":"nonpayable"},{"type":"function","name":"updateComplaintStatus","inputs":[{"name":"_id","type":"uint256","internalType":"uint256"},{"name":"_status","type":"uint8","internalType":"enum GramConnect.Status"}],"outputs":[],"stateMutability":"nonpayable"},{"type":"event","name":"ComplaintFiled","inputs":[{"name":"id","type":"uint256","indexed":false,"internalType":"uint256"},{"name":"citizen","type":"address","indexed":false,"internalType":"address"}],"anonymous":false},{"type":"event","name":"ComplaintStatusUpdated","inputs":[{"name":"id","type":"uint256","indexed":false,"internalType":"uint256"},{"name":"status","type":"uint8","indexed":false,"internalType":"enum GramConnect.Status"}],"anonymous":false},{"type":"event","name":"OfficerAdded","inputs":[{"name":"officer","type":"address","indexed":false,"internalType":"address"},{"name":"level","type":"uint8","indexed":false,"internalType":"enum GramConnect.OfficerLevel"}],"anonymous":false},{"type":"event","name":"OfficerRemoved","inputs":[{"name":"officer","type":"address","indexed":false,"internalType":"address"}],"anonymous":false}],"bytecode":{"object":"0x608060405234801561000f575f5ffd5b5060405161417d38038061417d833981810160405281019061003191906100d4565b805f5f6101000a81548173ffffffffffffffffffffffffffffffffffffffff021916908373ffffffffffffffffffffffffffffffffffffffff160217905550506100ff565b5f5ffd5b5f73ffffffffffffffffffffffffffffffffffffffff82169050919050565b5f6100a38261007a565b9050919050565b6100b381610099565b81146100bd575f5ffd5b50565b5f815190506100ce816100aa565b92915050565b5f602082840312156100e9576100e8610076565b5b5f6100f6848285016100c0565b91505092915050565b6140718061010c5f395ff3fe608060405234801561000f575f5ffd5b506004361061009c575f3560e01c806399c7b2e11161006457806399c7b2e114610167578063dee8ae4314610183578063f1d1c097146101b3578063f5911e0b146101cf578063f851a440146101eb5761009c565b8063084866dd146100a05780632edea294146100d557806359f97801146100f3578063719a0f8c146101115780637e69e9121461012d575b5f5ffd5b6100ba60048036038101906100b59190612ed2565b610209565b6040516100cc96959493929190612ffa565b60405180910390f35b6100dd610471565b6040516100ea919061308d565b60405180910390f35b6100fb610477565b604051610108919061308d565b60405180910390f35b61012b60048036038101906101269190612ed2565b610480565b005b610147600480360381019061014291906130d0565b610dcc565b60405161015e9b9a99989796959493929190613150565b60405180910390f35b610181600480360381019061017c9190613356565b6111f7565b005b61019d600480360381019061019891906130d0565b611402565b6040516101aa9190613642565b60405180910390f35b6101cd60048036038101906101c89190613685565b6118c0565b005b6101e960048036038101906101e491906136e6565b611a5c565b005b6101f361221a565b60405161020091906137df565b60405180910390f35b6003602052805f5260405f205f91509050805f015f9054906101000a900460ff1690805f0160019054906101000a900460ff169080600101805461024c90613825565b80601f016020809104026020016040519081016040528092919081815260200182805461027890613825565b80156102c35780601f1061029a576101008083540402835291602001916102c3565b820191905f5260205f20905b8154815290600101906020018083116102a657829003601f168201915b5050505050908060020180546102d890613825565b80601f016020809104026020016040519081016040528092919081815260200182805461030490613825565b801561034f5780601f106103265761010080835404028352916020019161034f565b820191905f5260205f20905b81548152906001019060200180831161033257829003601f168201915b50505050509080600301805461036490613825565b80601f016020809104026020016040519081016040528092919081815260200182805461039090613825565b80156103db5780601f106103b2576101008083540402835291602001916103db565b820191905f5260205f20905b8154815290600101906020018083116103be57829003601f168201915b5050505050908060040180546103f090613825565b80601f016020809104026020016040519081016040528092919081815260200182805461041c90613825565b80156104675780601f1061043e57610100808354040283529160200191610467565b820191905f5260205f20905b81548152906001019060200180831161044a57829003601f168201915b5050505050905086565b60015481565b5f600154905090565b5f60035f8373ffffffffffffffffffffffffffffffffffffffff1673ffffffffffffffffffffffffffffffffffffffff1681526020019081526020015f206040518060c00160405290815f82015f9054906101000a900460ff161515151581526020015f820160019054906101000a900460ff16600381111561050657610505612f17565b5b600381111561051857610517612f17565b5b815260200160018201805461052c90613825565b80601f016020809104026020016040519081016040528092919081815260200182805461055890613825565b80156105a35780601f1061057a576101008083540402835291602001916105a3565b820191905f5260205f20905b81548152906001019060200180831161058657829003601f168201915b505050505081526020016002820180546105bc90613825565b80601f01602080910402602001604051908101604052809291908181526020018280546105e890613825565b80156106335780601f1061060a57610100808354040283529160200191610633565b820191905f5260205f20905b81548152906001019060200180831161061657829003601f168201915b5050505050815260200160038201805461064c90613825565b80601f016020809104026020016040519081016040528092919081815260200182805461067890613825565b80156106c35780601f1061069a576101008083540402835291602001916106c3565b820191905f5260205f20905b8154815290600101906020018083116106a657829003601f168201915b505050505081526020016004820180546106dc90613825565b80601f016020809104026020016040519081016040528092919081815260200182805461070890613825565b80156107535780601f1061072a57610100808354040283529160200191610753565b820191905f5260205f20905b81548152906001019060200180831161073657829003601f168201915b5050505050815250509050805f01516107a1576040517f08c379a00000000000000000000000000000000000000000000000000000000081526004016107989061389f565b60405180910390fd5b5f5f9054906101000a900473ffffffffffffffffffffffffffffffffffffffff1673ffffffffffffffffffffffffffffffffffffffff163373ffffffffffffffffffffffffffffffffffffffff1614610d3b575f60035f3373ffffffffffffffffffffffffffffffffffffffff1673ffffffffffffffffffffffffffffffffffffffff1681526020019081526020015f206040518060c00160405290815f82015f9054906101000a900460ff161515151581526020015f820160019054906101000a900460ff16600381111561087a57610879612f17565b5b600381111561088c5761088b612f17565b5b81526020016001820180546108a090613825565b80601f01602080910402602001604051908101604052809291908181526020018280546108cc90613825565b80156109175780601f106108ee57610100808354040283529160200191610917565b820191905f5260205f20905b8154815290600101906020018083116108fa57829003601f168201915b5050505050815260200160028201805461093090613825565b80601f016020809104026020016040519081016040528092919081815260200182805461095c90613825565b80156109a75780601f1061097e576101008083540402835291602001916109a7565b820191905f5260205f20905b81548152906001019060200180831161098a57829003601f168201915b505050505081526020016003820180546109c090613825565b80601f01602080910402602001604051908101604052809291908181526020018280546109ec90613825565b8015610a375780601f10610a0e57610100808354040283529160200191610a37565b820191905f5260205f20905b815481529060010190602001808311610a1a57829003601f168201915b50505050508152602001600482018054610a5090613825565b80601f0160208091040260200160405190810160405280929190818152602001828054610a7c90613825565b8015610ac75780601f10610a9e57610100808354040283529160200191610ac7565b820191905f5260205f20905b815481529060010190602001808311610aaa57829003601f168201915b5050505050815250509050805f0151610b15576040517f08c379a0000000000000000000000000000000000000000000000000000000008152600401610b0c9061389f565b60405180910390fd5b610b278160200151836020015161223e565b610b66576040517f08c379a0000000000000000000000000000000000000000000000000000000008152600401610b5d90613907565b60405180910390fd5b5f6003811115610b7957610b78612f17565b5b81602001516003811115610b9057610b8f612f17565b5b03610be757610ba78160400151836040015161226e565b610be6576040517f08c379a0000000000000000000000000000000000000000000000000000000008152600401610bdd9061396f565b60405180910390fd5b5b60016003811115610bfb57610bfa612f17565b5b81602001516003811115610c1257610c11612f17565b5b03610c8357610c298160400151836040015161226e565b8015610c435750610c428160600151836060015161226e565b5b610c82576040517f08c379a0000000000000000000000000000000000000000000000000000000008152600401610c79906139d7565b60405180910390fd5b5b60026003811115610c9757610c96612f17565b5b81602001516003811115610cae57610cad612f17565b5b03610d3957610cc58160400151836040015161226e565b8015610cdf5750610cde8160600151836060015161226e565b5b8015610cf95750610cf88160800151836080015161226e565b5b610d38576040517f08c379a0000000000000000000000000000000000000000000000000000000008152600401610d2f90613a3f565b60405180910390fd5b5b505b5f60035f8473ffffffffffffffffffffffffffffffffffffffff1673ffffffffffffffffffffffffffffffffffffffff1681526020019081526020015f205f015f6101000a81548160ff0219169083151502179055507fc71ac73682f965d639a2f97202d5b162f5ea75f1ef0e933bad7f1db870a4c25482604051610dc091906137df565b60405180910390a15050565b6002602052805f5260405f205f91509050805f015490806001018054610df190613825565b80601f0160208091040260200160405190810160405280929190818152602001828054610e1d90613825565b8015610e685780601f10610e3f57610100808354040283529160200191610e68565b820191905f5260205f20905b815481529060010190602001808311610e4b57829003601f168201915b505050505090806002018054610e7d90613825565b80601f0160208091040260200160405190810160405280929190818152602001828054610ea990613825565b8015610ef45780601f10610ecb57610100808354040283529160200191610ef4565b820191905f5260205f20905b815481529060010190602001808311610ed757829003601f168201915b505050505090806003018054610f0990613825565b80601f0160208091040260200160405190810160405280929190818152602001828054610f3590613825565b8015610f805780601f10610f5757610100808354040283529160200191610f80565b820191905f5260205f20905b815481529060010190602001808311610f6357829003601f168201915b505050505090806004018054610f9590613825565b80601f0160208091040260200160405190810160405280929190818152602001828054610fc190613825565b801561100c5780601f10610fe35761010080835404028352916020019161100c565b820191905f5260205f20905b815481529060010190602001808311610fef57829003601f168201915b50505050509080600501805461102190613825565b80601f016020809104026020016040519081016040528092919081815260200182805461104d90613825565b80156110985780601f1061106f57610100808354040283529160200191611098565b820191905f5260205f20905b81548152906001019060200180831161107b57829003601f168201915b5050505050908060060180546110ad90613825565b80601f01602080910402602001604051908101604052809291908181526020018280546110d990613825565b80156111245780601f106110fb57610100808354040283529160200191611124565b820191905f5260205f20905b81548152906001019060200180831161110757829003601f168201915b50505050509080600701805461113990613825565b80601f016020809104026020016040519081016040528092919081815260200182805461116590613825565b80156111b05780601f10611187576101008083540402835291602001916111b0565b820191905f5260205f20905b81548152906001019060200180831161119357829003601f168201915b505050505090806008015f9054906101000a900473ffffffffffffffffffffffffffffffffffffffff169080600901549080600a015f9054906101000a900460ff1690508b565b60015f81548092919061120990613a8a565b919050555060405180610160016040528060015481526020018881526020018781526020018681526020018581526020018481526020018381526020018281526020013373ffffffffffffffffffffffffffffffffffffffff1681526020014281526020015f600281111561128157611280612f17565b5b81525060025f60015481526020019081526020015f205f820151815f015560208201518160010190816112b49190613c82565b5060408201518160020190816112ca9190613c82565b5060608201518160030190816112e09190613c82565b5060808201518160040190816112f69190613c82565b5060a082015181600501908161130c9190613c82565b5060c08201518160060190816113229190613c82565b5060e08201518160070190816113389190613c82565b50610100820151816008015f6101000a81548173ffffffffffffffffffffffffffffffffffffffff021916908373ffffffffffffffffffffffffffffffffffffffff160217905550610120820151816009015561014082015181600a015f6101000a81548160ff021916908360028111156113b6576113b5612f17565b5b02179055509050507f1ecde437f82e343c97e4e6057ada1bc68498c102922ab872f4054d88190e93c2600154336040516113f1929190613d51565b60405180910390a150505050505050565b61140a612de9565b60025f8381526020019081526020015f20604051806101600160405290815f820154815260200160018201805461144090613825565b80601f016020809104026020016040519081016040528092919081815260200182805461146c90613825565b80156114b75780601f1061148e576101008083540402835291602001916114b7565b820191905f5260205f20905b81548152906001019060200180831161149a57829003601f168201915b505050505081526020016002820180546114d090613825565b80601f01602080910402602001604051908101604052809291908181526020018280546114fc90613825565b80156115475780601f1061151e57610100808354040283529160200191611547565b820191905f5260205f20905b81548152906001019060200180831161152a57829003601f168201915b5050505050815260200160038201805461156090613825565b80601f016020809104026020016040519081016040528092919081815260200182805461158c90613825565b80156115d75780601f106115ae576101008083540402835291602001916115d7565b820191905f5260205f20905b8154815290600101906020018083116115ba57829003601f168201915b505050505081526020016004820180546115f090613825565b80601f016020809104026020016040519081016040528092919081815260200182805461161c90613825565b80156116675780601f1061163e57610100808354040283529160200191611667565b820191905f5260205f20905b81548152906001019060200180831161164a57829003601f168201915b5050505050815260200160058201805461168090613825565b80601f01602080910402602001604051908101604052809291908181526020018280546116ac90613825565b80156116f75780601f106116ce576101008083540402835291602001916116f7565b820191905f5260205f20905b8154815290600101906020018083116116da57829003601f168201915b5050505050815260200160068201805461171090613825565b80601f016020809104026020016040519081016040528092919081815260200182805461173c90613825565b80156117875780601f1061175e57610100808354040283529160200191611787565b820191905f5260205f20905b81548152906001019060200180831161176a57829003601f168201915b505050505081526020016007820180546117a090613825565b80601f01602080910402602001604051908101604052809291908181526020018280546117cc90613825565b80156118175780601f106117ee57610100808354040283529160200191611817565b820191905f5260205f20905b8154815290600101906020018083116117fa57829003601f168201915b50505050508152602001600882015f9054906101000a900473ffffffffffffffffffffffffffffffffffffffff1673ffffffffffffffffffffffffffffffffffffffff1673ffffffffffffffffffffffffffffffffffffffff16815260200160098201548152602001600a82015f9054906101000a900460ff1660028111156118a3576118a2612f17565b5b60028111156118b5576118b4612f17565b5b815250509050919050565b60035f3373ffffffffffffffffffffffffffffffffffffffff1673ffffffffffffffffffffffffffffffffffffffff1681526020019081526020015f205f015f9054906101000a900460ff1661194b576040517f08c379a00000000000000000000000000000000000000000000000000000000081526004016119429061389f565b60405180910390fd5b5f8211801561195c57506001548211155b61199b576040517f08c379a000000000000000000000000000000000000000000000000000000000815260040161199290613dc2565b60405180910390fd5b6119a53383612298565b6119e4576040517f08c379a00000000000000000000000000000000000000000000000000000000081526004016119db90613e2a565b60405180910390fd5b8060025f8481526020019081526020015f20600a015f6101000a81548160ff02191690836002811115611a1a57611a19612f17565b5b02179055507f8d69635f6d49a73328e953b059903843f78f440c7e2ea3b0527732de64bc22b98282604051611a50929190613e48565b60405180910390a15050565b5f73ffffffffffffffffffffffffffffffffffffffff168673ffffffffffffffffffffffffffffffffffffffff1603611aca576040517f08c379a0000000000000000000000000000000000000000000000000000000008152600401611ac190613eb9565b60405180910390fd5b5f5f9054906101000a900473ffffffffffffffffffffffffffffffffffffffff1673ffffffffffffffffffffffffffffffffffffffff163373ffffffffffffffffffffffffffffffffffffffff1603611b88575f6003811115611b3057611b2f612f17565b5b856003811115611b4357611b42612f17565b5b14611b83576040517f08c379a0000000000000000000000000000000000000000000000000000000008152600401611b7a90613f21565b60405180910390fd5b6120b3565b5f60035f3373ffffffffffffffffffffffffffffffffffffffff1673ffffffffffffffffffffffffffffffffffffffff1681526020019081526020015f206040518060c00160405290815f82015f9054906101000a900460ff161515151581526020015f820160019054906101000a900460ff166003811115611c0e57611c0d612f17565b5b6003811115611c2057611c1f612f17565b5b8152602001600182018054611c3490613825565b80601f0160208091040260200160405190810160405280929190818152602001828054611c6090613825565b8015611cab5780601f10611c8257610100808354040283529160200191611cab565b820191905f5260205f20905b815481529060010190602001808311611c8e57829003601f168201915b50505050508152602001600282018054611cc490613825565b80601f0160208091040260200160405190810160405280929190818152602001828054611cf090613825565b8015611d3b5780601f10611d1257610100808354040283529160200191611d3b565b820191905f5260205f20905b815481529060010190602001808311611d1e57829003601f168201915b50505050508152602001600382018054611d5490613825565b80601f0160208091040260200160405190810160405280929190818152602001828054611d8090613825565b8015611dcb5780601f10611da257610100808354040283529160200191611dcb565b820191905f5260205f20905b815481529060010190602001808311611dae57829003601f168201915b50505050508152602001600482018054611de490613825565b80601f0160208091040260200160405190810160405280929190818152602001828054611e1090613825565b8015611e5b5780601f10611e3257610100808354040283529160200191611e5b565b820191905f5260205f20905b815481529060010190602001808311611e3e57829003601f168201915b5050505050815250509050805f0151611ea9576040517f08c379a0000000000000000000000000000000000000000000000000000000008152600401611ea09061389f565b60405180910390fd5b611eb781602001518761223e565b611ef6576040517f08c379a0000000000000000000000000000000000000000000000000000000008152600401611eed90613f89565b60405180910390fd5b5f6003811115611f0957611f08612f17565b5b81602001516003811115611f2057611f1f612f17565b5b03611f7357611f3381604001518661226e565b611f72576040517f08c379a0000000000000000000000000000000000000000000000000000000008152600401611f699061396f565b60405180910390fd5b5b60016003811115611f8757611f86612f17565b5b81602001516003811115611f9e57611f9d612f17565b5b0361200757611fb181604001518661226e565b8015611fc75750611fc681606001518561226e565b5b612006576040517f08c379a0000000000000000000000000000000000000000000000000000000008152600401611ffd906139d7565b60405180910390fd5b5b6002600381111561201b5761201a612f17565b5b8160200151600381111561203257612031612f17565b5b036120b15761204581604001518661226e565b801561205b575061205a81606001518561226e565b5b8015612071575061207081608001518461226e565b5b6120b0576040517f08c379a00000000000000000000000000000000000000000000000000000000081526004016120a790613a3f565b60405180910390fd5b5b505b6040518060c001604052806001151581526020018660038111156120da576120d9612f17565b5b81526020018581526020018481526020018381526020018281525060035f8873ffffffffffffffffffffffffffffffffffffffff1673ffffffffffffffffffffffffffffffffffffffff1681526020019081526020015f205f820151815f015f6101000a81548160ff0219169083151502179055506020820151815f0160016101000a81548160ff0219169083600381111561217957612178612f17565b5b021790555060408201518160010190816121939190613c82565b5060608201518160020190816121a99190613c82565b5060808201518160030190816121bf9190613c82565b5060a08201518160040190816121d59190613c82565b509050507f9dc913ee382ce8e3b9b381755db905331e81f2b644cf80195544afb6368d7203868660405161220a929190613fa7565b60405180910390a1505050505050565b5f5f9054906101000a900473ffffffffffffffffffffffffffffffffffffffff1681565b5f81600381111561225257612251612f17565b5b83600381111561226557612264612f17565b5b10905092915050565b5f61227882612bfb565b8051906020012061228884612bfb565b8051906020012014905092915050565b5f5f60035f8573ffffffffffffffffffffffffffffffffffffffff1673ffffffffffffffffffffffffffffffffffffffff1681526020019081526020015f206040518060c00160405290815f82015f9054906101000a900460ff161515151581526020015f820160019054906101000a900460ff16600381111561231f5761231e612f17565b5b600381111561233157612330612f17565b5b815260200160018201805461234590613825565b80601f016020809104026020016040519081016040528092919081815260200182805461237190613825565b80156123bc5780601f10612393576101008083540402835291602001916123bc565b820191905f5260205f20905b81548152906001019060200180831161239f57829003601f168201915b505050505081526020016002820180546123d590613825565b80601f016020809104026020016040519081016040528092919081815260200182805461240190613825565b801561244c5780601f106124235761010080835404028352916020019161244c565b820191905f5260205f20905b81548152906001019060200180831161242f57829003601f168201915b5050505050815260200160038201805461246590613825565b80601f016020809104026020016040519081016040528092919081815260200182805461249190613825565b80156124dc5780601f106124b3576101008083540402835291602001916124dc565b820191905f5260205f20905b8154815290600101906020018083116124bf57829003601f168201915b505050505081526020016004820180546124f590613825565b80601f016020809104026020016040519081016040528092919081815260200182805461252190613825565b801561256c5780601f106125435761010080835404028352916020019161256c565b820191905f5260205f20905b81548152906001019060200180831161254f57829003601f168201915b50505050508152505090505f60025f8581526020019081526020015f20604051806101600160405290815f82015481526020016001820180546125ae90613825565b80601f01602080910402602001604051908101604052809291908181526020018280546125da90613825565b80156126255780601f106125fc57610100808354040283529160200191612625565b820191905f5260205f20905b81548152906001019060200180831161260857829003601f168201915b5050505050815260200160028201805461263e90613825565b80601f016020809104026020016040519081016040528092919081815260200182805461266a90613825565b80156126b55780601f1061268c576101008083540402835291602001916126b5565b820191905f5260205f20905b81548152906001019060200180831161269857829003601f168201915b505050505081526020016003820180546126ce90613825565b80601f01602080910402602001604051908101604052809291908181526020018280546126fa90613825565b80156127455780601f1061271c57610100808354040283529160200191612745565b820191905f5260205f20905b81548152906001019060200180831161272857829003601f168201915b5050505050815260200160048201805461275e90613825565b80601f016020809104026020016040519081016040528092919081815260200182805461278a90613825565b80156127d55780601f106127ac576101008083540402835291602001916127d5565b820191905f5260205f20905b8154815290600101906020018083116127b857829003601f168201915b505050505081526020016005820180546127ee90613825565b80601f016020809104026020016040519081016040528092919081815260200182805461281a90613825565b80156128655780601f1061283c57610100808354040283529160200191612865565b820191905f5260205f20905b81548152906001019060200180831161284857829003601f168201915b5050505050815260200160068201805461287e90613825565b80601f01602080910402602001604051908101604052809291908181526020018280546128aa90613825565b80156128f55780601f106128cc576101008083540402835291602001916128f5565b820191905f5260205f20905b8154815290600101906020018083116128d857829003601f168201915b5050505050815260200160078201805461290e90613825565b80601f016020809104026020016040519081016040528092919081815260200182805461293a90613825565b80156129855780601f1061295c57610100808354040283529160200191612985565b820191905f5260205f20905b81548152906001019060200180831161296857829003601f168201915b50505050508152602001600882015f9054906101000a900473ffffffffffffffffffffffffffffffffffffffff1673ffffffffffffffffffffffffffffffffffffffff1673ffffffffffffffffffffffffffffffffffffffff16815260200160098201548152602001600a82015f9054906101000a900460ff166002811115612a1157612a10612f17565b5b6002811115612a2357612a22612f17565b5b8152505090505f6003811115612a3c57612a3b612f17565b5b82602001516003811115612a5357612a52612f17565b5b03612a7357612a6a8260400151826080015161226e565b92505050612bf5565b60016003811115612a8757612a86612f17565b5b82602001516003811115612a9e57612a9d612f17565b5b03612ad857612ab58260400151826080015161226e565b8015612acf5750612ace82606001518260a0015161226e565b5b92505050612bf5565b60026003811115612aec57612aeb612f17565b5b82602001516003811115612b0357612b02612f17565b5b03612b5757612b1a8260400151826080015161226e565b8015612b345750612b3382606001518260a0015161226e565b5b8015612b4e5750612b4d82608001518260c0015161226e565b5b92505050612bf5565b600380811115612b6a57612b69612f17565b5b82602001516003811115612b8157612b80612f17565b5b03612bef57612b988260400151826080015161226e565b8015612bb25750612bb182606001518260a0015161226e565b5b8015612bcc5750612bcb82608001518260c0015161226e565b5b8015612be65750612be58260a001518260e0015161226e565b5b92505050612bf5565b5f925050505b92915050565b60605f8290505f815167ffffffffffffffff811115612c1d57612c1c613232565b5b6040519080825280601f01601f191660200182016040528015612c4f5781602001600182028036833780820191505090505b5090505f5f90505b8251811015612dde57604160f81b838281518110612c7857612c77613fce565b5b602001015160f81c60f81b7effffffffffffffffffffffffffffffffffffffffffffffffffffffffffffff191610158015612cf65750605a60f81b838281518110612cc657612cc5613fce565b5b602001015160f81c60f81b7effffffffffffffffffffffffffffffffffffffffffffffffffffffffffffff191611155b15612d71576020838281518110612d1057612d0f613fce565b5b602001015160f81c60f81b60f81c612d289190614007565b60f81b828281518110612d3e57612d3d613fce565b5b60200101907effffffffffffffffffffffffffffffffffffffffffffffffffffffffffffff191690815f1a905350612dd1565b828181518110612d8457612d83613fce565b5b602001015160f81c60f81b828281518110612da257612da1613fce565b5b60200101907effffffffffffffffffffffffffffffffffffffffffffffffffffffffffffff191690815f1a9053505b8080600101915050612c57565b508092505050919050565b6040518061016001604052805f8152602001606081526020016060815260200160608152602001606081526020016060815260200160608152602001606081526020015f73ffffffffffffffffffffffffffffffffffffffff1681526020015f81526020015f6002811115612e6157612e60612f17565b5b81525090565b5f604051905090565b5f5ffd5b5f5ffd5b5f73ffffffffffffffffffffffffffffffffffffffff82169050919050565b5f612ea182612e78565b9050919050565b612eb181612e97565b8114612ebb575f5ffd5b50565b5f81359050612ecc81612ea8565b92915050565b5f60208284031215612ee757612ee6612e70565b5b5f612ef484828501612ebe565b91505092915050565b5f8115159050919050565b612f1181612efd565b82525050565b7f4e487b71000000000000000000000000000000000000000000000000000000005f52602160045260245ffd5b60048110612f5557612f54612f17565b5b50565b5f819050612f6582612f44565b919050565b5f612f7482612f58565b9050919050565b612f8481612f6a565b82525050565b5f81519050919050565b5f82825260208201905092915050565b8281835e5f83830152505050565b5f601f19601f8301169050919050565b5f612fcc82612f8a565b612fd68185612f94565b9350612fe6818560208601612fa4565b612fef81612fb2565b840191505092915050565b5f60c08201905061300d5f830189612f08565b61301a6020830188612f7b565b818103604083015261302c8187612fc2565b905081810360608301526130408186612fc2565b905081810360808301526130548185612fc2565b905081810360a08301526130688184612fc2565b9050979650505050505050565b5f819050919050565b61308781613075565b82525050565b5f6020820190506130a05f83018461307e565b92915050565b6130af81613075565b81146130b9575f5ffd5b50565b5f813590506130ca816130a6565b92915050565b5f602082840312156130e5576130e4612e70565b5b5f6130f2848285016130bc565b91505092915050565b61310481612e97565b82525050565b6003811061311b5761311a612f17565b5b50565b5f81905061312b8261310a565b919050565b5f61313a8261311e565b9050919050565b61314a81613130565b82525050565b5f610160820190506131645f83018e61307e565b8181036020830152613176818d612fc2565b9050818103604083015261318a818c612fc2565b9050818103606083015261319e818b612fc2565b905081810360808301526131b2818a612fc2565b905081810360a08301526131c68189612fc2565b905081810360c08301526131da8188612fc2565b905081810360e08301526131ee8187612fc2565b90506131fe6101008301866130fb565b61320c61012083018561307e565b61321a610140830184613141565b9c9b505050505050505050505050565b5f5ffd5b5f5ffd5b7f4e487b71000000000000000000000000000000000000000000000000000000005f52604160045260245ffd5b61326882612fb2565b810181811067ffffffffffffffff8211171561328757613286613232565b5b80604052505050565b5f613299612e67565b90506132a5828261325f565b919050565b5f67ffffffffffffffff8211156132c4576132c3613232565b5b6132cd82612fb2565b9050602081019050919050565b828183375f83830152505050565b5f6132fa6132f5846132aa565b613290565b9050828152602081018484840111156133165761331561322e565b5b6133218482856132da565b509392505050565b5f82601f83011261333d5761333c61322a565b5b813561334d8482602086016132e8565b91505092915050565b5f5f5f5f5f5f5f60e0888a03121561337157613370612e70565b5b5f88013567ffffffffffffffff81111561338e5761338d612e74565b5b61339a8a828b01613329565b975050602088013567ffffffffffffffff8111156133bb576133ba612e74565b5b6133c78a828b01613329565b965050604088013567ffffffffffffffff8111156133e8576133e7612e74565b5b6133f48a828b01613329565b955050606088013567ffffffffffffffff81111561341557613414612e74565b5b6134218a828b01613329565b945050608088013567ffffffffffffffff81111561344257613441612e74565b5b61344e8a828b01613329565b93505060a088013567ffffffffffffffff81111561346f5761346e612e74565b5b61347b8a828b01613329565b92505060c088013567ffffffffffffffff81111561349c5761349b612e74565b5b6134a88a828b01613329565b91505092959891949750929550565b6134c081613075565b82525050565b5f82825260208201905092915050565b5f6134e082612f8a565b6134ea81856134c6565b93506134fa818560208601612fa4565b61350381612fb2565b840191505092915050565b61351781612e97565b82525050565b61352681613130565b82525050565b5f61016083015f8301516135425f8601826134b7565b506020830151848203602086015261355a82826134d6565b9150506040830151848203604086015261357482826134d6565b9150506060830151848203606086015261358e82826134d6565b915050608083015184820360808601526135a882826134d6565b91505060a083015184820360a08601526135c282826134d6565b91505060c083015184820360c08601526135dc82826134d6565b91505060e083015184820360e08601526135f682826134d6565b91505061010083015161360d61010086018261350e565b506101208301516136226101208601826134b7565b5061014083015161363761014086018261351d565b508091505092915050565b5f6020820190508181035f83015261365a818461352c565b905092915050565b6003811061366e575f5ffd5b50565b5f8135905061367f81613662565b92915050565b5f5f6040838503121561369b5761369a612e70565b5b5f6136a8858286016130bc565b92505060206136b985828601613671565b9150509250929050565b600481106136cf575f5ffd5b50565b5f813590506136e0816136c3565b92915050565b5f5f5f5f5f5f60c08789031215613700576136ff612e70565b5b5f61370d89828a01612ebe565b965050602061371e89828a016136d2565b955050604087013567ffffffffffffffff81111561373f5761373e612e74565b5b61374b89828a01613329565b945050606087013567ffffffffffffffff81111561376c5761376b612e74565b5b61377889828a01613329565b935050608087013567ffffffffffffffff81111561379957613798612e74565b5b6137a589828a01613329565b92505060a087013567ffffffffffffffff8111156137c6576137c5612e74565b5b6137d289828a01613329565b9150509295509295509295565b5f6020820190506137f25f8301846130fb565b92915050565b7f4e487b71000000000000000000000000000000000000000000000000000000005f52602260045260245ffd5b5f600282049050600182168061383c57607f821691505b60208210810361384f5761384e6137f8565b5b50919050565b7f4e6f74206f6666696365720000000000000000000000000000000000000000005f82015250565b5f613889600b83612f94565b915061389482613855565b602082019050919050565b5f6020820190508181035f8301526138b68161387d565b9050919050565b7f43616e6e6f742072656d6f7665000000000000000000000000000000000000005f82015250565b5f6138f1600d83612f94565b91506138fc826138bd565b602082019050919050565b5f6020820190508181035f83015261391e816138e5565b9050919050565b7f5374617465206d69736d617463680000000000000000000000000000000000005f82015250565b5f613959600e83612f94565b915061396482613925565b602082019050919050565b5f6020820190508181035f8301526139868161394d565b9050919050565b7f4469737472696374206d69736d617463680000000000000000000000000000005f82015250565b5f6139c1601183612f94565b91506139cc8261398d565b602082019050919050565b5f6020820190508181035f8301526139ee816139b5565b9050919050565b7f4d616e64616c206d69736d6174636800000000000000000000000000000000005f82015250565b5f613a29600f83612f94565b9150613a34826139f5565b602082019050919050565b5f6020820190508181035f830152613a5681613a1d565b9050919050565b7f4e487b71000000000000000000000000000000000000000000000000000000005f52601160045260245ffd5b5f613a9482613075565b91507fffffffffffffffffffffffffffffffffffffffffffffffffffffffffffffffff8203613ac657613ac5613a5d565b5b600182019050919050565b5f819050815f5260205f209050919050565b5f6020601f8301049050919050565b5f82821b905092915050565b5f60088302613b2d7fffffffffffffffffffffffffffffffffffffffffffffffffffffffffffffffff82613af2565b613b378683613af2565b95508019841693508086168417925050509392505050565b5f819050919050565b5f613b72613b6d613b6884613075565b613b4f565b613075565b9050919050565b5f819050919050565b613b8b83613b58565b613b9f613b9782613b79565b848454613afe565b825550505050565b5f5f905090565b613bb6613ba7565b613bc1818484613b82565b505050565b5f5b82811015613be757613bdc5f828401613bae565b600181019050613bc8565b505050565b601f821115613c3a5782821115613c3957613c0681613ad1565b613c0f83613ae3565b613c1885613ae3565b6020861015613c25575f90505b808301613c3482840382613bc6565b505050505b5b505050565b5f82821c905092915050565b5f613c5a5f1984600802613c3f565b1980831691505092915050565b5f613c728383613c4b565b9150826002028217905092915050565b613c8b82612f8a565b67ffffffffffffffff811115613ca457613ca3613232565b5b613cae8254613825565b613cb9828285613bec565b5f60209050601f831160018114613cea575f8415613cd8578287015190505b613ce28582613c67565b865550613d49565b601f198416613cf886613ad1565b5f5b82811015613d1f57848901518255600182019150602085019450602081019050613cfa565b86831015613d3c5784890151613d38601f891682613c4b565b8355505b6001600288020188555050505b505050505050565b5f604082019050613d645f83018561307e565b613d7160208301846130fb565b9392505050565b7f496e76616c696420636f6d706c61696e740000000000000000000000000000005f82015250565b5f613dac601183612f94565b9150613db782613d78565b602082019050919050565b5f6020820190508181035f830152613dd981613da0565b9050919050565b7f4e6f7420617574686f72697a65640000000000000000000000000000000000005f82015250565b5f613e14600e83612f94565b9150613e1f82613de0565b602082019050919050565b5f6020820190508181035f830152613e4181613e08565b9050919050565b5f604082019050613e5b5f83018561307e565b613e686020830184613141565b9392505050565b7f496e76616c6964206164647265737300000000000000000000000000000000005f82015250565b5f613ea3600f83612f94565b9150613eae82613e6f565b602082019050919050565b5f6020820190508181035f830152613ed081613e97565b9050919050565b7f41646d696e206f6e6c79206164647320537461746500000000000000000000005f82015250565b5f613f0b601583612f94565b9150613f1682613ed7565b602082019050919050565b5f6020820190508181035f830152613f3881613eff565b9050919050565b7f496e76616c6964206869657261726368790000000000000000000000000000005f82015250565b5f613f73601183612f94565b9150613f7e82613f3f565b602082019050919050565b5f6020820190508181035f830152613fa081613f67565b9050919050565b5f604082019050613fba5f8301856130fb565b613fc76020830184612f7b565b9392505050565b7f4e487b71000000000000000000000000000000000000000000000000000000005f52603260045260245ffd5b5f60ff82169050919050565b5f61401182613ffb565b915061401c83613ffb565b9250828201905060ff81111561403557614034613a5d565b5b9291505056fea2646970667358221220f6732d7cf92adeaecdf8968db64b2f7e4398bdacf4c1629dce5669e94121fa1364736f6c63430008210033","linkReferences":{}},"methodIdentifiers":{"addOfficer(address,uint8,string,string,string,string)":"f5911e0b","admin()":"f851a440","complaintCount()":"2edea294","complaints(uint256)":"7e69e912","fileComplaint(string,string,string,string,string,string,string)":"99c7b2e1","getComplaint(uint256)":"dee8ae43","getTotalComplaints()":"59f97801","officers(address)":"084866dd","removeOfficer(address)":"719a0f8c","updateComplaintStatus(uint256,uint8)":"f1d1c097"},"id":16}